{
  "contractName": "Document",
  "abi": [
    {
      "constant": false,
      "inputs": [
        {
          "name": "username",
          "type": "bytes16"
        },
        {
          "name": "ipfsHash",
          "type": "bytes16"
        }
      ],
      "name": "storeDocumentToFS",
      "outputs": [
        {
          "name": "success",
          "type": "bool"
        }
      ],
      "payable": false,
      "stateMutability": "nonpayable",
      "type": "function"
    },
    {
      "constant": true,
      "inputs": [],
      "name": "getDocumentFromFS",
      "outputs": [
        {
          "name": "ipfsHash",
          "type": "bytes16"
        }
      ],
      "payable": false,
      "stateMutability": "view",
      "type": "function"
    }
  ],
  "bytecode": "0x608060405234801561001057600080fd5b506102ff806100206000396000f30060806040526004361061004c576000357c0100000000000000000000000000000000000000000000000000000000900463ffffffff16806312c5254c146100515780631cce03c6146100c6575b600080fd5b34801561005d57600080fd5b506100ac60048036038101908080356fffffffffffffffffffffffffffffffff1916906020019092919080356fffffffffffffffffffffffffffffffff19169060200190929190505050610117565b604051808215151515815260200191505060405180910390f35b3480156100d257600080fd5b506100db61022d565b60405180826fffffffffffffffffffffffffffffffff19166fffffffffffffffffffffffffffffffff1916815260200191505060405180910390f35b6000610121610293565b6040805190810160405280856fffffffffffffffffffffffffffffffff19168152602001846fffffffffffffffffffffffffffffffff19168152509050806000803373ffffffffffffffffffffffffffffffffffffffff1673ffffffffffffffffffffffffffffffffffffffff16815260200190815260200160002060008201518160000160006101000a8154816fffffffffffffffffffffffffffffffff02191690837001000000000000000000000000000000009004021790555060208201518160000160106101000a8154816fffffffffffffffffffffffffffffffff021916908370010000000000000000000000000000000090040217905550905050600191505092915050565b60008060003373ffffffffffffffffffffffffffffffffffffffff1673ffffffffffffffffffffffffffffffffffffffff16815260200190815260200160002060000160109054906101000a900470010000000000000000000000000000000002905090565b604080519081016040528060006fffffffffffffffffffffffffffffffff1916815260200160006fffffffffffffffffffffffffffffffff1916815250905600a165627a7a7230582062dd4b6339c83b1dc86f7a7c627f15969cffe17ca56c8e7c61dcaca5e951fef70029",
  "source": "pragma solidity ^0.4.23;\n\ncontract Document{\n\n    mapping(address => DocumentInfo) private UserDocuments;\n\n    struct DocumentInfo{\n        bytes16 username;\n        bytes16 ipfsHash;\n    }\n\n    function storeDocumentToFS(bytes16 username, bytes16 ipfsHash) public returns(bool success){\n        DocumentInfo memory docInfo = DocumentInfo({username:username, ipfsHash:ipfsHash});\n        UserDocuments[msg.sender] = docInfo;\n        return true;\n    }\n\n    function getDocumentFromFS() public view returns(bytes16 ipfsHash){\n        return UserDocuments[msg.sender].ipfsHash;\n    }\n}\n",
  "sourcePath": "/home/cnilesh/IdeaProjects/DigitalIdentity/contracts/Document.sol",
  "compiler": {
    "name": "solc",
    "version": "0.4.23+commit.124ca40d.Emscripten.clang"
  },
  "schemaVersion": "2.0.0",
  "updatedAt": "2018-05-14T19:56:30.727Z"
}